S01400004C43445F70657465726C69622E7372656387
S11300000C944B000C9455000C9455000C94550022
S11300100C9455000C9455000C9455000C94550008
S11300200C9455000C9455000C9455000C945500F8
S11300300C9455000C9455000C9455000C945500E8
S11300400C9455000C9455000C9455000C945500D8
S11300500C9455000C9455000C9455000C945500C8
S11300600C9455000C9455004C6F6164696E6720C4
S1130070486F7573654F530057656C636F6D6520EA
S11300804461766964652100536C656570696E67C7
S1130090204D4355000011241FBECFEFD8E0DEBF32
S11300A0CDBF0E9457000C9461010C9400008CE0B9
S11300B00E9425010E94F6000E94FA0088E790E061
S11300C00E9413012FEF8BE792E92150804090406A
S11300D0E1F700C000000E94F60088E690E00E946C
S11300E013012FEF8BE792E9215080409040E1F714
S11300F000C0000083B7817F846083BF83B78160C1
S113010083BF0E94F60088E890E00E94130188955E
S1130110F8CF5F9A00005F980895CF93C82F6623A5
S113012011F05D9A01C05D985E98229A239A249AF0
S1130130259A2D982C982B982A98CC230CF42D9A38
S1130140C6FD2C9AC5FD2B9AC4FD2A9A0E948900EB
S11301502D982C982B982A98C3FD2D9AC2FD2C9A81
S1130160C1FD2B9AC0FD2A9A0E9489002A9A2B9AD3
S11301702C9A2D9ACF910895882311F05D9A01C08D
S11301805D985E9A22982398249825985F9A000097
S11301901A9B02C080E101C080E01B9980621C9917
S11301A080641D9980685F9800005F9A00001A9926
S11301B081601B9982601C9984601D9988605F9896
S11301C0089580E00E94BC008823DCF300C000C0D6
S11301D080E00E94BC000895CF93C82F0E94E100E4
S11301E060E08C2F0E948D00CF91089581E00E94E1
S11301F0EC00089582E00E94EC000895CF93C82F8C
S11302000E94E100CA3049F4803410F080E001C05B
S113021080E480580E94EC0004C061E08C2F0E94AE
S11302208D00CF910895CF93DF93EC012196FC01CB
S11302308491882339F00E94FE00FE018491219666
S11302408111F9CFDF91CF910895CF93C82F559A9B
S1130250569A579A229A239A249A259A8FE99FE0CC
S11302600197F1F700C000002B9A2A9A0E94890096
S113027081EE94E00197F1F700C000000E9489002C
S113028095E19A95F1F700000E94890085E18A952D
S1130290F1F700002A980E94890095E19A95F1F7F8
S11302A0000088E20E94EC0088E00E94EC000E94BA
S11302B0F60086E00E94EC008C2F0E94EC00CF91A7
S10902C00895F894FFCF3D
S9030000FC
