S02B0000496E74657272757074205541525420466978656420427566666572205374756469756D2E737265633B
S11300000C9434000C9451000C9451000C94510045
S11300100C9451000C9451000C9451000C94510018
S11300200C9451000C9451000C9451000C94510008
S11300300C9451000C9451000C9451000C945100F8
S11300400C9451000C9451000C9451000C945100E8
S11300500C9453000C9451000C9451000C945100D6
S11300600C9451000C94510011241FBECFEFD8E022
S1130070DEBFCDBF11E0A0E0B1E0E0ECF2E002C0F1
S113008005900D92A234B107D9F723E0A2E4B1E0C0
S113009001C01D92AB33B207E1F70E941E010C941C
S11300A05E010C9400001F920F920FB60F92112460
S11300B02F938F939F93EF93FF93809136039091A7
S11300C03703FC01EE5BFE4F2081222341F00196B1
S11300D090933703809336032093C6000FC0109289
S11300E0370310923603109239031092380310929A
S11300F03A03E1ECF0E080818F7B8083FF91EF9104
S11301009F918F912F910F900FBE0F901F90189574
S113011087E68093C4001092C500E2ECF0E0808191
S113012086628083E0ECF0E0808182608083E1EC91
S1130130F0E080818860808308950F931F93CF93AC
S1130140DF93EC018091360390913703892BC1F53D
S113015044EF51E0BE0182E491E00E944F01FE01B0
S113016001900020E9F7CF018C1B9D0B853F21E016
S1130170920760F084EF91E0909339038093380301
S113018081E080933A031092350304C090933903BD
S113019080933803E1ECF0E0808180648083E6E3BF
S11301A0F3E0808191819C012F5F3F4F3183208355
S11301B0FC01EE5BFE4F80818093C600789439C0C9
S11301C008E313E0D8018D919C9144EF51E0481B62
S11301D0590BBE0182E491E00E943F01FE010190AF
S11301E00020E9F73197EC1BFD0BD8018D919C9110
S11301F0E80FF91FE53FF14060F081E080933A0396
S113020084EF91E09093390380933803109235037F
S113021010C010923A03FE0101900020E9F73197D3
S1130220EC1BFD0B0196E80FF91FF0933903E093E3
S11302303803DF91CF911F910F9108950E94880098
S113024080E091E00E949D00CAE3D3E08AE291E05D
S11302500E949D0081E391E00E949D008881882393
S113026021F08CE391E00E949D002FEF83ED90E359
S1130270215080409040E1F700C00000E7CFFB012F
S1130280DC010D900020E9F711974150504028F00F
S1130290019000200D92C9F708951C920895FB0166
S11302A0DC014150504048F001900D920020C9F704
S11302B001C01D9241505040E0F70895F894FFCFDB
S11302C04369616F6F6F6F6F6F6F6F6F6F6F6F6F7A
S11302D06F6F6F6F6F6F6F6F6F6F6F6F6F6F6F6F2A
S11302E06F6F6F6F6F6F6F210A004D6172696120CC
S11302F0006520446176696465210A004F57460A07
S10503000000F7
S9030000FC
