:020000020000FC
:1000000000C008E01FEF1DBF0EBF00EE0AB901954A
:100010000BB915E013BF00E00F930E9418000F9179
:1000200000E00F930E9418000F910E943E008895F7
:10003000CF93DF931F932F93CDB7DEB71B8122277A
:1000400028E01F930E942E001F91110F2A95222352
:10005000C1F72F911F91DF91CF910895CF93DF9337
:100060003F93CDB7DEB73B8137FD5D9A5F9A0000C5
:100070005F985D983F91DF91CF9108955E9A00005F
:040080005E980895E9
:00000001FF
