:100000000C9434000C943E000C9440000C943E0080
:100010000C943E000C943E000C943E000C943E0068
:100020000C943E000C943E000C943E000C943E0058
:100030000C943E000C943E000C943E000C943E0048
:100040000C943E000C943E000C943E000C943E0038
:100050000C943E000C943E000C943E000C943E0028
:100060000C943E000C943E0011241FBECFEFD8E04C
:10007000DEBFCDBF0E9455000C9474000C940000AC
:100080001F920F920FB60F9211248F939F93F894A3
:1000900095B182E0892785B9789488959F918F9151
:1000A0000F900FBE0F901F901895219A209853988B
:1000B0005B982FEF89E698E1215080409040E1F76E
:1000C00000C00000E9E6F0E08081846080838081E8
:1000D00088608083E99A789483B78E6083BF83B702
:0C00E000816083BF8895FFCFF894FFCFAC
:00000001FF
