:100000000C9434000C943E000C943E000C94400080
:100010000C943E000C943E000C943E000C943E0068
:100020000C943E000C943E000C943E000C943E0058
:100030000C943E000C943E000C943E000C943E0048
:100040000C943E000C943E000C943E000C943E0038
:100050000C943E000C943E000C943E000C943E0028
:100060000C943E000C943E0011241FBECFEFD8E04C
:10007000DEBFCDBF0E946B000C948E000C9400007C
:100080001F920F920FB60F9211242F938F939F936D
:10009000F894199B16C02FE788E391E02150804027
:1000A0009040E1F700C00000199B0BC0289A2FEF89
:1000B00089E698E1215080409040E1F700C00000BF
:1000C0002898789488959F918F912F910F900FBECB
:1000D0000F901F901895209A2198299AE8E6F0E051
:1000E000808181608083EBE6F0E0808182608083A4
:1000F000789483B78E6083BF83B7816083BF889510
:1001000091E085B1892785B92FEF30E782E0215052
:1001100030408040E1F700C00000F3CFF894FFCFFB
:00000001FF
