S01A000053657269616C5574696C69747950726F76612E73726563AE
S11300000C9447000C9451000C9451000C94510032
S11300100C9451000C9451000C9451000C94510018
S11300200C9451000C9451000C9451000C94510008
S11300300C9451000C9451000C9451000C945100F8
S11300400C9451000C9451000C9451000C945100E8
S11300500C9451000C9451000C9451000C945100D8
S11300600C9451000C9451005472616E736D697458
S113007074696E672066726F6D206D656D6F72793D
S11300803A204E6F206275666665722E0A0011244E
S11300901FBECFEFD8E0DEBFCDBF0E9453000C944B
S11300A0D2000C9400001F9288E08F931F921F923D
S11300B086E08F930E946F000F900F900F900F9027
S11300C00F9088E690E00E94B3002FEF83ED90E359
S11300D0215080409040E1F700C00000F2CFCF9360
S11300E0DF93CDB7DEB79D811092C50083E3809383
S11300F0C4008985882339F0E2ECF0E080818064D3
S113010080830E94CD00913071F4E2ECF0E08081B4
S113011082608083808184608083E1ECF0E0808170
S11301208460808305C0E2ECF0E08081892B8083C9
S1130130E2ECF0E090818E81892B808390818F8125
S1130140892B8083E1ECF0E090818885892B808382
S1130150DF91CF910895E0ECF0E0908195FFFDCF21
S11301608093C60008950F931F93CF939C01FC01C5
S11301704491442371F08C01C0E0F90184910E9400
S1130180AB00CF5F98012C0F311DF90194919111AF
S1130190F4CFCF911F910F91089581E090E0F894EE
S10B01A00C94D200F894FFCF87
S9030000FC
