:100000000C942A000C9447000C9447000C94470071
:100010000C9447000C9447000C9447000C94470044
:100020000C9447000C9447000C9447000C94470034
:100030000C9447000C9447000C9496000C944700D5
:100040000C9447000C9447000C9447000C94470014
:100050000C94470011241FBECFE5D8E0DEBFCDBF12
:1000600011E0A0E6B0E0EAE0F2E002C005900D92F7
:10007000AC33B107D9F723E0ACE3B1E001C01D9286
:10008000AD33B207E1F70E9455000C9403010C94C4
:1000900000008CE089B980B58F7780BD10BC80B539
:1000A000866A80BD599A539A08950E948F000E94D3
:1000B00049008EE690E00E94D3002FE38DE093E0AC
:1000C000215080409040E1F700C00000F2CFF8944A
:1000D0002091300330913103243F91E0390731F40E
:1000E00081E0809336038FEF9FEF0895F901E45C80
:1000F000FE4F8083E4E3F3E0808191810196918358
:100100008083C90101969093310380933003232BA0
:1001100011F4559A7894789480E090E0089580E600
:1001200090E090933A038093390308951F920F92C1
:100130000FB60F9211242F933F938F939F93EF93BA
:10014000FF938091340390913503892BB1F0E2E362
:10015000F3E0808191819C012F5F3F4F31832083A9
:10016000FC01E45CFE4F80818CB9E4E3F3E0808124
:1001700091810197918380830BC010923303109279
:1001800032031092360310923103109230035598C7
:10019000FF91EF919F918F913F912F910F900FBE03
:1001A0000F901F9018950F931F93CF93DF93E091BB
:1001B0003903F0913A03238121FF1BC08C01D0E069
:1001C000C0E0F80181918F016091390370913A0389
:1001D000DB011896ED91FC911997882331F0099570
:1001E000892B79F3DFEFCFEFECCF8AE00995892BEC
:1001F00019F08FEF9FEF02C08D2F9C2FDF91CF91D1
:0A0200001F910F910895F894FFCFAD
:10020A0000000002000000006700000000004349EF
:10021A00414F21210A4C6F77206C6576656C20620C
:10022A007566666572696E67206578656375746957
:10023A006E67207368616C616C616C616C61206DC2
:10024A006172696120746920616D6F616161616BBE
:10025A006164686664736A616866616473686C2065
:10026A006166646A6366617368646673686A616416
:10027A007368666B6A616468686164666B736C61F3
:10028A006161616161616161616161616161616154
:10029A006161616161616161616161616161616144
:1002AA000A6768676867686A676A67686A670A697F
:1002BA0073636C6973636C6973636C6973636C6988
:1002CA0073636C6973636C6973636C6973636C6978
:0C02DA0073636C6973636C6973636C0080
:00000001FF
