:100000000C9434000C9451000C9451000C94510049
:100010000C9451000C9451000C9451000C9451001C
:100020000C9451000C9451000C9451000C9451000C
:100030000C9451000C9451000C9451000C945100FC
:100040000C9451000C9451000C9451000C94B2008B
:100050000C9451000C9451000C9451000C945100DC
:100060000C9451000C94510011241FBECFEFD8E026
:10007000DEBFCDBF11E0A0E0B1E0ECE4F2E002C0F1
:1000800005900D92A833B107D9F723E0A8E3B1E0BA
:1000900001C01D92A933B207E1F70E9468000C94D9
:1000A00024010C94000087E68093C4001092C500E0
:1000B000E0ECF0E0808182608083E2ECF0E080811F
:1000C00086628083E1ECF0E080818860808308951F
:1000D0000E94AB000E9453008EE091E00E94F40069
:1000E0008AE291E00E94F4002FEF83ED90E321502B
:1000F00080409040E1F700C00000F2CF20912C0337
:1001000030912D03243F91E0390731F481E0809351
:1001100032038FEF9FEF0895F901E85CFE4F808373
:10012000E0E3F3E080819181019691838083C901AE
:10013000019690932D0380932C03232B49F4E1EC3B
:10014000F0E0808180628083789480E090E0089580
:1001500080E090E0089580E091E0909336038093F2
:10016000350308951F920F920FB60F9211242F930B
:100170003F938F939F93EF93FF93809130039091E0
:100180003103892BB9F0EEE2F3E0808191819C018B
:100190002F5F3F4F31832083FC01E85CFE4F80815D
:1001A0008093C600E0E3F3E0808191810197918321
:1001B00080830FC010922F0310922E0310923203EF
:1001C00010922D0310922C03E1ECF0E080818F7DE2
:1001D0008083FF91EF919F918F913F912F910F908D
:1001E0000FBE0F901F9018950F931F93CF93DF931F
:1001F000E0913503F0913603238121FF1BC08C0170
:10020000D0E0C0E0F80181918F01609135037091D9
:100210003603DB011896ED91FC911997882331F094
:100220000995892B79F3DFEFCFEFECCF8AE00995C1
:10023000892B19F08FEF9FEF02C08D2F9C2FDF913C
:0C024000CF911F910F910895F894FFCF0B
:10024C0000000002000000007E0000000000576566
:10025C006C636F6D6520746F2044617669645F6FA9
:10026C00204C69627261727921004D617269612062
:08027C00746920616D6F21001F
:00000001FF
