:100000000FC016C015C014C013C012C011C010C05C
:100010000FC00EC00DC00CC00BC00AC009C008C084
:1000200011271FBFCFE5D0E0DEBFCDBF02D0E2C0B9
:10003000E7CF1F9348E14F931F931F9346E04F93E1
:1000400045E24F9340E84F931BD00D9A4DB75EB7F2
:10005000495F5F4F0FB7F8945EBF0FBF4DBF51B1FF
:1000600040E2452741B988EF91E467D05FE36DE056
:1000700043E0515060404040E1F700C00000EFCF46
:100080002F933F93CF93DF93CDB7DEB7C95FDF4F99
:1000900029913881C850D0402150310B40E050E0C8
:1000A00064E274EF80E090E05ED0632F77276AB956
:1000B00029B9C35FDF4F4881CD50D040442321F0A0
:1000C0004CB140644CB992D0C75FDF4F4881C950F2
:1000D000D040413051F44CB142604CB94CB1446015
:1000E0004CB94DB144604DB908C04CB1C75FDF4F4A
:1000F0005881C950D040452B4CB95CB1C65FDF4F29
:100100004881CA50D040452B4CB95CB1C55FDF4F28
:100110004881CB50D040452B4CB95DB1C45FDF4F17
:100120004881452B4DB9DF91CF913F912F91089593
:100130004EB145FFFDCF88B908953F93CF93DF932C
:10014000C82FD92F8881882351F030E0F1DF3F5F3D
:10015000EC2FFD2FE30FF11F80818113F7CFDF918B
:10016000CF913F910895052F97FB16F400950FD07E
:1001700057FD05D014D007FD02D046F408C05095B5
:100180004095309521953F4F4F4F5F4F0895909583
:100190008095709561957F4F8F4F9F4F0895A1E295
:1001A0001A2FAA1BBB1BEA2FFB2F0DC0AA1FBB1FB8
:1001B000EE1FFF1FA217B307E407F50720F0A21BED
:1001C000B30BE40BF50B661F771F881F991F1A9559
:1001D00069F76095709580959095262F372F482F59
:1001E000592F6A2F7B2F8E2F9F2F089581E090E04B
:0801F000F89400C0F894FFCF61
:1001F800496D6D65747465726520436F64696365E4
:10020800206469206174746976617A696F6E650A21
:0102180000E5
:00000001FF
