:100000000C9446000C9463000C9463000C94630001
:100010000C9463000C9463000C9463000C946300D4
:100020000C9463000C9463000C9463000C946300C4
:100030000C9463000C9463000C9463000C946300B4
:100040000C9463000C9463000C9463000C946300A4
:100050000C9463000C9463000C9463000C94630094
:100060000C9463000C946300737472696E67612072
:100070006C6574746120004E6F204D656D6F7279F0
:1000800020617661696C61626C650A0011241FBE93
:10009000CFEFD8E0DEBFCDBF11E0A0E0B1E0ECEDE6
:1000A000F6E002C005900D92A630B107D9F721E025
:1000B000A6E0B1E001C01D92AA30B207E1F70E94AC
:1000C00065000C946C030C9400001F9288E18F93E0
:1000D0001F921F9286E08F930E9484000F900F90D2
:1000E0000F900F900F900E940001EC0188E690E0C5
:1000F0000E94DE00CE010E94C8008AE00E94C0007B
:10010000CE010E94D801EFCFCF93DF93CDB7DEB7FA
:100110009D811092C50083E38093C4008985882364
:1001200039F0E2ECF0E08081806480830E94270354
:10013000913071F4E2ECF0E0808182608083808114
:1001400084608083E1ECF0E080818460808305C07E
:10015000E2ECF0E08081892B8083E2ECF0E090819A
:100160008E81892B808390818F81892B8083E1EC24
:10017000F0E090818885892B8083DF91CF9108956D
:10018000E0ECF0E0908195FFFDCF8093C6000895EC
:100190000F931F93CF93FC018081882359F08F0127
:1001A000C0E00E94C000CF5FF801EC0FF11D80811C
:1001B0008111F7CFCF911F910F9108950F931F9346
:1001C000CF939C01FC014491442371F08C01C0E069
:1001D000F90184910E94C000CF5F98012C0F311D5E
:1001E000F90194919111F4CFCF911F910F9108953E
:1001F000E0ECF0E080818823ECF78091C600089560
:10020000FF920F931F93CF93DF9382E390E00E94BE
:100210004001EC01892BE9F487E790E00E94DE00C1
:1002200080E090E027C063E070E0CE010E946102B0
:10023000EC01009739F487E790E00E94DE0080E04F
:1002400090E018C0FC01E00FF11FF0820F5F1F4F1C
:1002500002C000E010E00E94F800F82E8AE0F816D4
:1002600019F002331105F9F6FE01E00FF11F1082BB
:100270008C2F9D2FDF91CF911F910F91FF900895AB
:100280000F931F93CF93DF938230910510F482E098
:1002900090E0E0910801F091090120E030E0A0E059
:1002A000B0E0309719F140815181028113814817E4
:1002B0005907C8F08417950769F4109731F0129622
:1002C0000C93129713961C9327C000930801109368
:1002D000090122C02115310519F04217530718F4FE
:1002E0009A01BD01EF01DF01F801DBCF21153105D6
:1002F000F9F0281B390B2430310580F48A819B8169
:100300006115710521F0FB019383828304C09093F2
:10031000090180930801FE01329644C0FE01E20FFC
:10032000F31F8193919322503109398328833AC076
:100330002091060130910701232B41F42091020105
:1003400030910301309307012093060120910001B1
:10035000309101012115310541F42DB73EB740918F
:10036000040150910501241B350BE0910601F09129
:100370000701E217F307A0F42E1B3F0B28173907DC
:1003800078F0AC014E5F5F4F2417350748F04E0FF1
:100390005F1F50930701409306018193919302C020
:1003A000E0E0F0E0CF01DF91CF911F910F91089530
:1003B000CF93DF93009709F481C0FC013297138239
:1003C0001282A0910801B0910901109781F4208157
:1003D0003181820F931F2091060130910701281768
:1003E000390751F5F0930701E093060167C0ED016D
:1003F00020E030E0CE17DF0740F44A815B819E01A8
:1004000041155105F1F0EA01F5CFD383C283408154
:100410005181840F951FC817D90759F48881998194
:10042000840F951F0296918380838A819B81938399
:1004300082832115310529F4F0930901E093080125
:100440003DC0E901FB83EA8349915991C40FD51F4F
:10045000EC17FD0761F480819181840F951F02964E
:10046000E90199838883828193819B838A83E0E079
:10047000F0E012968D919C911397009719F0FD0171
:10048000DC01F7CF8D919C9111979D012E5F3F4F1D
:10049000820F931F20910601309107012817390719
:1004A00069F4309729F4109209011092080102C0F2
:1004B00013821282B0930701A0930601DF91CF91BE
:1004C0000895A0E0B0E0E7E6F2E00C943903EC0117
:1004D000009721F4CB010E944001B4C0FC01E60F5B
:1004E000F71F9C0122503109E217F30708F4A8C056
:1004F000D9010D911C91119706171707B0F005301F
:10050000110508F49BC0C80104978617970708F4E3
:1005100095C002501109061B170B019311936D939F
:100520007C93CF010E94D80189C05B01A01AB10A57
:100530004C01800E911EA0910801B0910901612C1F
:10054000712CE12CF12C109709F446C08D919C91EF
:100550001197A815B905B1F56C0142E0C40ED11C84
:10056000CA14DB0478F14C018A189B08640142E04C
:10057000C40ED11C1296BC9012971396AC91B5E0A4
:10058000CB16D10440F0B282A38391828082D9013C
:100590006D937C9309C00E5F1F4F800F911FF9016F
:1005A00091838083EB2DFA2FE114F10431F0D70110
:1005B0001396FC93EE93129741C0F0930901E093D8
:1005C00008013CC06816790608F43C017D011296CA
:1005D0000D90BC91A02DB7CF80910601909107019D
:1005E00088169906E1F466167706C8F48091000132
:1005F00090910101009741F48DB79EB7409104019D
:1006000050910501841B950BE817F907C8F4F09386
:100610000701E0930601F901718360830FC0CB01EC
:100620000E9440017C01009759F0A801BE010E9480
:100630002C03CE010E94D801C70104C0CE0102C024
:1006400080E090E0CDB7DEB7EEE00C94550381E09A
:1006500090E0F8940C946C03FB01DC0102C0019063
:100660000D9241505040D8F708952F923F924F92EB
:100670005F926F927F928F929F92AF92BF92CF9232
:10068000DF92EF92FF920F931F93CF93DF93CDB73B
:10069000DEB7CA1BDB0B0FB6F894DEBF0FBECDBFB3
:1006A00009942A88398848885F846E847D848C8484
:1006B0009B84AA84B984C884DF80EE80FD800C818D
:1006C0001B81AA81B981CE0FD11D0FB6F894DEBF70
:0C06D0000FBECDBFED010895F894FFCFE0
:0606DC0000000A012000ED
:00000001FF
