S02A000053747564696F2050756E7461746F726520476C6F62616C65206120737472696E67612E7372656331
S11300000C9434000C9451000C9451000C94510045
S11300100C9451000C9451000C9451000C94510018
S11300200C9451000C9451000C9451000C94510008
S11300300C9451000C9451000C9451000C945100F8
S11300400C9451000C9451000C9451000C945100E8
S11300500C9451000C9451000C9451000C945100D8
S11300600C9451000C94510011241FBECFEFD8E022
S1130070DEBFCDBF11E0A0E0B1E0E4EEF0E002C0ED
S113008005900D92A630B107D9F721E0A6E0B1E0C2
S113009001C01D92A830B207E1F70E9453000C94EE
S11300A070000C940000CF93DF931F92CDB7DEB79E
S11300B080E091E09093070180930601809106010E
S11300C0909107019C012F5F3F4F309307012093CC
S11300D00601FC0180818983898181508983EECF67
S10700E0F894FFCFBE
S10900E44369616F000096
S9030000FC
